{
  "contractName": "Comment",
  "abi": [
    {
      "inputs": [],
      "payable": false,
      "stateMutability": "nonpayable",
      "type": "constructor"
    },
    {
      "constant": true,
      "inputs": [],
      "name": "owner",
      "outputs": [
        {
          "internalType": "address",
          "name": "",
          "type": "address"
        }
      ],
      "payable": false,
      "stateMutability": "view",
      "type": "function"
    }
  ],
  "bytecode": "0x608060405234801561001057600080fd5b50336000806101000a81548173ffffffffffffffffffffffffffffffffffffffff021916908373ffffffffffffffffffffffffffffffffffffffff16021790555060cf8061005f6000396000f3fe6080604052348015600f57600080fd5b506004361060285760003560e01c80638da5cb5b14602d575b600080fd5b60336075565b604051808273ffffffffffffffffffffffffffffffffffffffff1673ffffffffffffffffffffffffffffffffffffffff16815260200191505060405180910390f35b6000809054906101000a900473ffffffffffffffffffffffffffffffffffffffff168156fea265627a7a72315820eaccd764726bee36b46722b7edb8e644a6d4dbb4bbe485f0302ce848e49cbb6d64736f6c63430005100032",
  "source": "// SPDX-License-Identifier: MIT\npragma solidity >=0.4.21 <8.10.0;\n\n\ncontract Comment {\n  address public owner;\n\n  constructor() public {\n      owner = msg.sender;\n  }\n}",
  "sourcePath": "D:\\Solidity\\comment\\contracts\\Comment.sol",
  "compiler": {
    "name": "solc",
    "version": "0.5.16+commit.9c3226ce.Emscripten.clang"
  },
  "schemaVersion": "3.4.7",
  "updatedAt": "2022-05-21T08:46:16.780Z",
  "devdoc": {
    "methods": {}
  },
  "userdoc": {
    "methods": {}
  }
}