{
  "contractName": "Comment",
  "abi": [
    {
      "inputs": [],
      "stateMutability": "nonpayable",
      "type": "constructor"
    },
    {
      "anonymous": false,
      "inputs": [
        {
          "indexed": false,
          "internalType": "address",
          "name": "_commenter",
          "type": "address"
        },
        {
          "indexed": false,
          "internalType": "uint256",
          "name": "_commentId",
          "type": "uint256"
        },
        {
          "indexed": false,
          "internalType": "uint256",
          "name": "_writerId",
          "type": "uint256"
        }
      ],
      "name": "LogWriteComment",
      "type": "event"
    },
    {
      "anonymous": false,
      "inputs": [
        {
          "indexed": false,
          "internalType": "address",
          "name": "_writer",
          "type": "address"
        },
        {
          "indexed": false,
          "internalType": "uint256",
          "name": "_id",
          "type": "uint256"
        }
      ],
      "name": "LogWriteText",
      "type": "event"
    },
    {
      "inputs": [
        {
          "internalType": "uint256",
          "name": "",
          "type": "uint256"
        }
      ],
      "name": "CommenterInfo",
      "outputs": [
        {
          "internalType": "address",
          "name": "CommenterAddress",
          "type": "address"
        },
        {
          "internalType": "string",
          "name": "name",
          "type": "string"
        },
        {
          "internalType": "uint256",
          "name": "writerId",
          "type": "uint256"
        }
      ],
      "stateMutability": "view",
      "type": "function",
      "constant": true
    },
    {
      "inputs": [
        {
          "internalType": "uint256",
          "name": "",
          "type": "uint256"
        }
      ],
      "name": "WriterInfo",
      "outputs": [
        {
          "internalType": "address",
          "name": "WriterAddress",
          "type": "address"
        },
        {
          "internalType": "string",
          "name": "name",
          "type": "string"
        }
      ],
      "stateMutability": "view",
      "type": "function",
      "constant": true
    },
    {
      "inputs": [],
      "name": "owner",
      "outputs": [
        {
          "internalType": "address",
          "name": "",
          "type": "address"
        }
      ],
      "stateMutability": "view",
      "type": "function",
      "constant": true
    },
    {
      "inputs": [
        {
          "internalType": "uint256",
          "name": "_id",
          "type": "uint256"
        },
        {
          "internalType": "string",
          "name": "_name",
          "type": "string"
        }
      ],
      "name": "writeText",
      "outputs": [],
      "stateMutability": "payable",
      "type": "function",
      "payable": true
    },
    {
      "inputs": [
        {
          "internalType": "address",
          "name": "_commenterAddr",
          "type": "address"
        },
        {
          "internalType": "uint256",
          "name": "_id",
          "type": "uint256"
        },
        {
          "internalType": "string",
          "name": "_name",
          "type": "string"
        },
        {
          "internalType": "uint256",
          "name": "_writerId",
          "type": "uint256"
        }
      ],
      "name": "writeComment",
      "outputs": [],
      "stateMutability": "payable",
      "type": "function",
      "payable": true
    }
  ],
  "bytecode": "0x608060405234801561001057600080fd5b5033600360006101000a81548173ffffffffffffffffffffffffffffffffffffffff021916908373ffffffffffffffffffffffffffffffffffffffff160217905550610b3c806100616000396000f3fe60806040526004361061004a5760003560e01c806331b77c641461004f5780633c3c5ee61461006b5780637cc95dc3146100aa5780638da5cb5b146100e8578063c68974ae14610113575b600080fd5b610069600480360381019061006491906107ad565b61012f565b005b34801561007757600080fd5b50610092600480360381019061008d9190610809565b610279565b6040516100a19392919061090e565b60405180910390f35b3480156100b657600080fd5b506100d160048036038101906100cc9190610809565b61034b565b6040516100df92919061094c565b60405180910390f35b3480156100f457600080fd5b506100fd610417565b60405161010a919061097c565b60405180910390f35b61012d600480360381019061012891906109c3565b61043d565b005b60405180604001604052803373ffffffffffffffffffffffffffffffffffffffff1681526020018281525060008084815260200190815260200160002060008201518160000160006101000a81548173ffffffffffffffffffffffffffffffffffffffff021916908373ffffffffffffffffffffffffffffffffffffffff16021790555060208201518160010190805190602001906101cf92919061057a565b50905050600360009054906101000a900473ffffffffffffffffffffffffffffffffffffffff1673ffffffffffffffffffffffffffffffffffffffff166108fc349081150290604051600060405180830381858888f1935050505015801561023b573d6000803e3d6000fd5b507fa99426ed2ae8c61ae86ffae1f7b2829852f8381458a03ce5c5ac6ddd13ea3ff9338360405161026d929190610a46565b60405180910390a15050565b60016020528060005260406000206000915090508060000160009054906101000a900473ffffffffffffffffffffffffffffffffffffffff16908060010180546102c290610a9e565b80601f01602080910402602001604051908101604052809291908181526020018280546102ee90610a9e565b801561033b5780601f106103105761010080835404028352916020019161033b565b820191906000526020600020905b81548152906001019060200180831161031e57829003601f168201915b5050505050908060020154905083565b60006020528060005260406000206000915090508060000160009054906101000a900473ffffffffffffffffffffffffffffffffffffffff169080600101805461039490610a9e565b80601f01602080910402602001604051908101604052809291908181526020018280546103c090610a9e565b801561040d5780601f106103e25761010080835404028352916020019161040d565b820191906000526020600020905b8154815290600101906020018083116103f057829003601f168201915b5050505050905082565b600360009054906101000a900473ffffffffffffffffffffffffffffffffffffffff1681565b60405180606001604052803373ffffffffffffffffffffffffffffffffffffffff168152602001838152602001828152506001600085815260200190815260200160002060008201518160000160006101000a81548173ffffffffffffffffffffffffffffffffffffffff021916908373ffffffffffffffffffffffffffffffffffffffff16021790555060208201518160010190805190602001906104e492919061057a565b50604082015181600201559050508373ffffffffffffffffffffffffffffffffffffffff166108fc349081150290604051600060405180830381858888f19350505050158015610538573d6000803e3d6000fd5b507fa41d6c049b34695c0e812d0bc743ae1df30870a48e3a6345a8d2f0a1ccf5203384848360405161056c93929190610acf565b60405180910390a150505050565b82805461058690610a9e565b90600052602060002090601f0160209004810192826105a857600085556105ef565b82601f106105c157805160ff19168380011785556105ef565b828001600101855582156105ef579182015b828111156105ee5782518255916020019190600101906105d3565b5b5090506105fc9190610600565b5090565b5b80821115610619576000816000905550600101610601565b5090565b6000604051905090565b600080fd5b600080fd5b6000819050919050565b61064481610631565b811461064f57600080fd5b50565b6000813590506106618161063b565b92915050565b600080fd5b600080fd5b6000601f19601f8301169050919050565b7f4e487b7100000000000000000000000000000000000000000000000000000000600052604160045260246000fd5b6106ba82610671565b810181811067ffffffffffffffff821117156106d9576106d8610682565b5b80604052505050565b60006106ec61061d565b90506106f882826106b1565b919050565b600067ffffffffffffffff82111561071857610717610682565b5b61072182610671565b9050602081019050919050565b82818337600083830152505050565b600061075061074b846106fd565b6106e2565b90508281526020810184848401111561076c5761076b61066c565b5b61077784828561072e565b509392505050565b600082601f83011261079457610793610667565b5b81356107a484826020860161073d565b91505092915050565b600080604083850312156107c4576107c3610627565b5b60006107d285828601610652565b925050602083013567ffffffffffffffff8111156107f3576107f261062c565b5b6107ff8582860161077f565b9150509250929050565b60006020828403121561081f5761081e610627565b5b600061082d84828501610652565b91505092915050565b600073ffffffffffffffffffffffffffffffffffffffff82169050919050565b600061086182610836565b9050919050565b61087181610856565b82525050565b600081519050919050565b600082825260208201905092915050565b60005b838110156108b1578082015181840152602081019050610896565b838111156108c0576000848401525b50505050565b60006108d182610877565b6108db8185610882565b93506108eb818560208601610893565b6108f481610671565b840191505092915050565b61090881610631565b82525050565b60006060820190506109236000830186610868565b818103602083015261093581856108c6565b905061094460408301846108ff565b949350505050565b60006040820190506109616000830185610868565b818103602083015261097381846108c6565b90509392505050565b60006020820190506109916000830184610868565b92915050565b6109a081610856565b81146109ab57600080fd5b50565b6000813590506109bd81610997565b92915050565b600080600080608085870312156109dd576109dc610627565b5b60006109eb878288016109ae565b94505060206109fc87828801610652565b935050604085013567ffffffffffffffff811115610a1d57610a1c61062c565b5b610a298782880161077f565b9250506060610a3a87828801610652565b91505092959194509250565b6000604082019050610a5b6000830185610868565b610a6860208301846108ff565b9392505050565b7f4e487b7100000000000000000000000000000000000000000000000000000000600052602260045260246000fd5b60006002820490506001821680610ab657607f821691505b602082108103610ac957610ac8610a6f565b5b50919050565b6000606082019050610ae46000830186610868565b610af160208301856108ff565b610afe60408301846108ff565b94935050505056fea264697066735822122075aceb5ce8af2b9ec5ba7ad7084851033d8d9d185cb2334d2b2ed057a68b518164736f6c634300080d0033",
  "immutableReferences": {},
  "source": "// SPDX-License-Identifier: MIT\npragma solidity >=0.4.21 <8.10.0;\n\n\ncontract Comment {\n  struct Writer {\n    address WriterAddress;\n    string name;\n  }\n\n  struct Commenter {\n    address CommenterAddress;\n    string name;\n    uint writerId;\n  }\n\n  mapping (uint => Writer) public WriterInfo;\n  mapping (uint => Commenter) public CommenterInfo;\n  mapping (address => uint) balance;\n\n  address public owner;\n\n  event LogWriteText(address _writer, uint _id);\n  event LogWriteComment(address _commenter, uint _commentId, uint _writerId);\n\n  constructor() public {\n      owner = msg.sender;\n  }\n\n  function writeText(uint _id, string memory _name) public payable {\n    WriterInfo[_id] = Writer(msg.sender, _name);\n\n    payable(owner).transfer(msg.value); // 0.1 ether\n    emit LogWriteText(msg.sender, _id);\n  }\n\n  function writeComment(address _commenterAddr, uint _id, string memory _name, uint _writerId) public payable {\n    CommenterInfo[_id] = Commenter(msg.sender, _name, _writerId);\n\n    payable(_commenterAddr).transfer(msg.value); // 1 ether\n    emit LogWriteComment(_commenterAddr, _id, _writerId);\n  }\n}",
  "sourcePath": "D:\\Solidity\\comment-v2\\contracts\\Comment.sol",
  "compiler": {
    "name": "solc",
    "version": "0.8.13+commit.abaa5c0e.Emscripten.clang"
  },
  "schemaVersion": "3.4.7",
  "updatedAt": "2022-05-27T13:51:22.891Z",
  "networkType": "ethereum",
  "devdoc": {
    "kind": "dev",
    "methods": {},
    "version": 1
  },
  "userdoc": {
    "kind": "user",
    "methods": {},
    "version": 1
  }
}